{
  "_format": "hh-sol-artifact-1",
  "contractName": "BondCreator",
  "sourceName": "contracts/BondCreator.sol",
  "abi": [
    {
      "anonymous": false,
      "inputs": [
        {
          "indexed": true,
          "internalType": "address",
          "name": "previousOwner",
          "type": "address"
        },
        {
          "indexed": true,
          "internalType": "address",
          "name": "newOwner",
          "type": "address"
        }
      ],
      "name": "OwnershipTransferred",
      "type": "event"
    },
    {
      "inputs": [
        {
          "internalType": "address",
          "name": "",
          "type": "address"
        }
      ],
      "name": "DAOPlexes",
      "outputs": [
        {
          "internalType": "uint8",
          "name": "ratePerStablecoin",
          "type": "uint8"
        },
        {
          "internalType": "uint8",
          "name": "amountSold",
          "type": "uint8"
        },
        {
          "internalType": "uint256",
          "name": "expiry",
          "type": "uint256"
        },
        {
          "internalType": "address",
          "name": "dao",
          "type": "address"
        },
        {
          "internalType": "address",
          "name": "daotoken",
          "type": "address"
        },
        {
          "internalType": "address",
          "name": "stablecoin",
          "type": "address"
        },
        {
          "internalType": "string",
          "name": "daoname",
          "type": "string"
        }
      ],
      "stateMutability": "view",
      "type": "function"
    },
    {
      "inputs": [
        {
          "internalType": "uint256",
          "name": "",
          "type": "uint256"
        }
      ],
      "name": "bondNFTs",
      "outputs": [
        {
          "internalType": "address",
          "name": "owner",
          "type": "address"
        },
        {
          "components": [
            {
              "internalType": "uint8",
              "name": "ratePerStablecoin",
              "type": "uint8"
            },
            {
              "internalType": "uint8",
              "name": "amountSold",
              "type": "uint8"
            },
            {
              "internalType": "uint256",
              "name": "expiry",
              "type": "uint256"
            },
            {
              "internalType": "address",
              "name": "dao",
              "type": "address"
            },
            {
              "internalType": "address",
              "name": "daotoken",
              "type": "address"
            },
            {
              "internalType": "address",
              "name": "stablecoin",
              "type": "address"
            },
            {
              "internalType": "string",
              "name": "daoname",
              "type": "string"
            }
          ],
          "internalType": "struct BondCreator.PlexData",
          "name": "plexData",
          "type": "tuple"
        }
      ],
      "stateMutability": "view",
      "type": "function"
    },
    {
      "inputs": [
        {
          "components": [
            {
              "internalType": "uint8",
              "name": "ratePerStablecoin",
              "type": "uint8"
            },
            {
              "internalType": "uint8",
              "name": "amountSold",
              "type": "uint8"
            },
            {
              "internalType": "uint256",
              "name": "expiry",
              "type": "uint256"
            },
            {
              "internalType": "address",
              "name": "dao",
              "type": "address"
            },
            {
              "internalType": "address",
              "name": "daotoken",
              "type": "address"
            },
            {
              "internalType": "address",
              "name": "stablecoin",
              "type": "address"
            },
            {
              "internalType": "string",
              "name": "daoname",
              "type": "string"
            }
          ],
          "internalType": "struct BondCreator.PlexData",
          "name": "_newPlex",
          "type": "tuple"
        }
      ],
      "name": "joinDAOplex",
      "outputs": [],
      "stateMutability": "nonpayable",
      "type": "function"
    },
    {
      "inputs": [],
      "name": "nftCount",
      "outputs": [
        {
          "internalType": "uint256",
          "name": "",
          "type": "uint256"
        }
      ],
      "stateMutability": "view",
      "type": "function"
    },
    {
      "inputs": [],
      "name": "owner",
      "outputs": [
        {
          "internalType": "address",
          "name": "",
          "type": "address"
        }
      ],
      "stateMutability": "view",
      "type": "function"
    },
    {
      "inputs": [],
      "name": "plexCount",
      "outputs": [
        {
          "internalType": "uint256",
          "name": "",
          "type": "uint256"
        }
      ],
      "stateMutability": "view",
      "type": "function"
    },
    {
      "inputs": [
        {
          "internalType": "uint256",
          "name": "",
          "type": "uint256"
        }
      ],
      "name": "plexes",
      "outputs": [
        {
          "internalType": "uint8",
          "name": "ratePerStablecoin",
          "type": "uint8"
        },
        {
          "internalType": "uint8",
          "name": "amountSold",
          "type": "uint8"
        },
        {
          "internalType": "uint256",
          "name": "expiry",
          "type": "uint256"
        },
        {
          "internalType": "address",
          "name": "dao",
          "type": "address"
        },
        {
          "internalType": "address",
          "name": "daotoken",
          "type": "address"
        },
        {
          "internalType": "address",
          "name": "stablecoin",
          "type": "address"
        },
        {
          "internalType": "string",
          "name": "daoname",
          "type": "string"
        }
      ],
      "stateMutability": "view",
      "type": "function"
    },
    {
      "inputs": [
        {
          "internalType": "address",
          "name": "dao",
          "type": "address"
        },
        {
          "internalType": "string",
          "name": "uri",
          "type": "string"
        }
      ],
      "name": "purchaseBondNFT",
      "outputs": [],
      "stateMutability": "nonpayable",
      "type": "function"
    },
    {
      "inputs": [
        {
          "internalType": "uint256",
          "name": "tokenId",
          "type": "uint256"
        }
      ],
      "name": "redeemBondForTokens",
      "outputs": [],
      "stateMutability": "nonpayable",
      "type": "function"
    },
    {
      "inputs": [],
      "name": "renounceOwnership",
      "outputs": [],
      "stateMutability": "nonpayable",
      "type": "function"
    },
    {
      "inputs": [
        {
          "internalType": "contract IBondContract",
          "name": "NFT_Contract_",
          "type": "address"
        }
      ],
      "name": "setNFTContract",
      "outputs": [],
      "stateMutability": "nonpayable",
      "type": "function"
    },
    {
      "inputs": [
        {
          "internalType": "address",
          "name": "newOwner",
          "type": "address"
        }
      ],
      "name": "transferOwnership",
      "outputs": [],
      "stateMutability": "nonpayable",
      "type": "function"
    },
    {
      "inputs": [
        {
          "internalType": "address",
          "name": "",
          "type": "address"
        },
        {
          "internalType": "address",
          "name": "",
          "type": "address"
        }
      ],
      "name": "userAmountOfPlex",
      "outputs": [
        {
          "internalType": "uint256",
          "name": "",
          "type": "uint256"
        }
      ],
      "stateMutability": "view",
      "type": "function"
    }
  ],
  "bytecode": "0x60806040523480156200001157600080fd5b5062000032620000266200003860201b60201c565b6200004060201b60201c565b62000104565b600033905090565b60008060009054906101000a900473ffffffffffffffffffffffffffffffffffffffff169050816000806101000a81548173ffffffffffffffffffffffffffffffffffffffff021916908373ffffffffffffffffffffffffffffffffffffffff1602179055508173ffffffffffffffffffffffffffffffffffffffff168173ffffffffffffffffffffffffffffffffffffffff167f8be0079c531659141344cd1fd0a4f28419497f9722a3daafe3b4186f6b6457e060405160405180910390a35050565b61283080620001146000396000f3fe608060405234801561001057600080fd5b50600436106100cf5760003560e01c8063cf4621a41161008c578063e3081a1111610066578063e3081a111461021f578063f2fde38b1461023d578063f87f2dab14610259578063ffa078b614610275576100cf565b8063cf4621a414610197578063d884828a146101cd578063ded88bf414610203576100cf565b80630af2c6ca146100d4578063715018a6146100f25780638da5cb5b146100fc5780638e94bc971461011a578063a7ccabdf1461014a578063b2cfa01014610166575b600080fd5b6100dc610291565b6040516100e991906115c3565b60405180910390f35b6100fa610297565b005b6101046102ab565b604051610111919061161f565b60405180910390f35b610134600480360381019061012f919061167a565b6102d4565b60405161014191906115c3565b60405180910390f35b610164600480360381019061015f91906116f8565b6102f9565b005b610180600480360381019061017b9190611751565b610345565b60405161018e9291906118ed565b60405180910390f35b6101b160048036038101906101ac919061191d565b61056b565b6040516101c497969594939291906119a3565b60405180910390f35b6101e760048036038101906101e29190611751565b6106af565b6040516101fa97969594939291906119a3565b60405180910390f35b61021d60048036038101906102189190611a3d565b6107f3565b005b610227610940565b60405161023491906115c3565b60405180910390f35b6102576004803603810190610252919061191d565b610946565b005b610273600480360381019061026e9190611bbb565b6109ca565b005b61028f600480360381019061028a9190611751565b6110cf565b005b60025481565b61029f6113bd565b6102a9600061143b565b565b60008060009054906101000a900473ffffffffffffffffffffffffffffffffffffffff16905090565b6007602052816000526040600020602052806000526040600020600091509150505481565b6103016113bd565b80600160006101000a81548173ffffffffffffffffffffffffffffffffffffffff021916908373ffffffffffffffffffffffffffffffffffffffff16021790555050565b60046020528060005260406000206000915090508060000160009054906101000a900473ffffffffffffffffffffffffffffffffffffffff1690806001016040518060e00160405290816000820160009054906101000a900460ff1660ff1660ff1681526020016000820160019054906101000a900460ff1660ff1660ff168152602001600182015481526020016002820160009054906101000a900473ffffffffffffffffffffffffffffffffffffffff1673ffffffffffffffffffffffffffffffffffffffff1673ffffffffffffffffffffffffffffffffffffffff1681526020016003820160009054906101000a900473ffffffffffffffffffffffffffffffffffffffff1673ffffffffffffffffffffffffffffffffffffffff1673ffffffffffffffffffffffffffffffffffffffff1681526020016004820160009054906101000a900473ffffffffffffffffffffffffffffffffffffffff1673ffffffffffffffffffffffffffffffffffffffff1673ffffffffffffffffffffffffffffffffffffffff1681526020016005820180546104e490611c46565b80601f016020809104026020016040519081016040528092919081815260200182805461051090611c46565b801561055d5780601f106105325761010080835404028352916020019161055d565b820191906000526020600020905b81548152906001019060200180831161054057829003601f168201915b505050505081525050905082565b60066020528060005260406000206000915090508060000160009054906101000a900460ff16908060000160019054906101000a900460ff16908060010154908060020160009054906101000a900473ffffffffffffffffffffffffffffffffffffffff16908060030160009054906101000a900473ffffffffffffffffffffffffffffffffffffffff16908060040160009054906101000a900473ffffffffffffffffffffffffffffffffffffffff169080600501805461062c90611c46565b80601f016020809104026020016040519081016040528092919081815260200182805461065890611c46565b80156106a55780601f1061067a576101008083540402835291602001916106a5565b820191906000526020600020905b81548152906001019060200180831161068857829003601f168201915b5050505050905087565b60056020528060005260406000206000915090508060000160009054906101000a900460ff16908060000160019054906101000a900460ff16908060010154908060020160009054906101000a900473ffffffffffffffffffffffffffffffffffffffff16908060030160009054906101000a900473ffffffffffffffffffffffffffffffffffffffff16908060040160009054906101000a900473ffffffffffffffffffffffffffffffffffffffff169080600501805461077090611c46565b80601f016020809104026020016040519081016040528092919081815260200182805461079c90611c46565b80156107e95780601f106107be576101008083540402835291602001916107e9565b820191906000526020600020905b8154815290600101906020018083116107cc57829003601f168201915b5050505050905087565b806006600083606001602081019061080b919061191d565b73ffffffffffffffffffffffffffffffffffffffff1673ffffffffffffffffffffffffffffffffffffffff168152602001908152602001600020818161085191906122a6565b90505080600560006003548152602001908152602001600020818161087691906122a6565b90505080608001602081019061088c919061191d565b73ffffffffffffffffffffffffffffffffffffffff1663095ea7b33069152d02c7e14af68000006040518363ffffffff1660e01b81526004016108d09291906122ef565b602060405180830381600087803b1580156108ea57600080fd5b505af11580156108fe573d6000803e3d6000fd5b505050506040513d601f19601f820116820180604052508101906109229190612350565b5060016003600082825461093691906123ac565b9250508190555050565b60035481565b61094e6113bd565b600073ffffffffffffffffffffffffffffffffffffffff168173ffffffffffffffffffffffffffffffffffffffff1614156109be576040517f08c379a00000000000000000000000000000000000000000000000000000000081526004016109b590612474565b60405180910390fd5b6109c78161143b565b50565b6064600660008473ffffffffffffffffffffffffffffffffffffffff1673ffffffffffffffffffffffffffffffffffffffff16815260200190815260200160002060000160019054906101000a900460ff1660ff1610610a5f576040517f08c379a0000000000000000000000000000000000000000000000000000000008152600401610a56906124e0565b60405180910390fd5b6001600660008473ffffffffffffffffffffffffffffffffffffffff1673ffffffffffffffffffffffffffffffffffffffff16815260200190815260200160002060000160018282829054906101000a900460ff16610abe9190612500565b92506101000a81548160ff021916908360ff160217905550600660008373ffffffffffffffffffffffffffffffffffffffff1673ffffffffffffffffffffffffffffffffffffffff16815260200190815260200160002060040160009054906101000a900473ffffffffffffffffffffffffffffffffffffffff1673ffffffffffffffffffffffffffffffffffffffff166323b872dd3384600660008773ffffffffffffffffffffffffffffffffffffffff1673ffffffffffffffffffffffffffffffffffffffff16815260200190815260200160002060000160009054906101000a900460ff1660ff1668056bc75e2d63100000610bbd919061257b565b6040518463ffffffff1660e01b8152600401610bdb939291906125dd565b602060405180830381600087803b158015610bf557600080fd5b505af1158015610c09573d6000803e3d6000fd5b505050506040513d601f19601f82011682018060405250810190610c2d9190612350565b5060405180604001604052803373ffffffffffffffffffffffffffffffffffffffff168152602001600660008573ffffffffffffffffffffffffffffffffffffffff1673ffffffffffffffffffffffffffffffffffffffff1681526020019081526020016000206040518060e00160405290816000820160009054906101000a900460ff1660ff1660ff1681526020016000820160019054906101000a900460ff1660ff1660ff168152602001600182015481526020016002820160009054906101000a900473ffffffffffffffffffffffffffffffffffffffff1673ffffffffffffffffffffffffffffffffffffffff1673ffffffffffffffffffffffffffffffffffffffff1681526020016003820160009054906101000a900473ffffffffffffffffffffffffffffffffffffffff1673ffffffffffffffffffffffffffffffffffffffff1673ffffffffffffffffffffffffffffffffffffffff1681526020016004820160009054906101000a900473ffffffffffffffffffffffffffffffffffffffff1673ffffffffffffffffffffffffffffffffffffffff1673ffffffffffffffffffffffffffffffffffffffff168152602001600582018054610df590611c46565b80601f0160208091040260200160405190810160405280929190818152602001828054610e2190611c46565b8015610e6e5780601f10610e4357610100808354040283529160200191610e6e565b820191906000526020600020905b815481529060010190602001808311610e5157829003601f168201915b50505050508152505081525060046000600254815260200190815260200160002060008201518160000160006101000a81548173ffffffffffffffffffffffffffffffffffffffff021916908373ffffffffffffffffffffffffffffffffffffffff16021790555060208201518160010160008201518160000160006101000a81548160ff021916908360ff16021790555060208201518160000160016101000a81548160ff021916908360ff1602179055506040820151816001015560608201518160020160006101000a81548173ffffffffffffffffffffffffffffffffffffffff021916908373ffffffffffffffffffffffffffffffffffffffff16021790555060808201518160030160006101000a81548173ffffffffffffffffffffffffffffffffffffffff021916908373ffffffffffffffffffffffffffffffffffffffff16021790555060a08201518160040160006101000a81548173ffffffffffffffffffffffffffffffffffffffff021916908373ffffffffffffffffffffffffffffffffffffffff16021790555060c082015181600501908051906020019061101c929190611507565b505050905050600160009054906101000a900473ffffffffffffffffffffffffffffffffffffffff1673ffffffffffffffffffffffffffffffffffffffff1663d204c45e33836040518363ffffffff1660e01b815260040161107f929190612614565b600060405180830381600087803b15801561109957600080fd5b505af11580156110ad573d6000803e3d6000fd5b505050506001600260008282546110c491906123ac565b925050819055505050565b4260046000838152602001908152602001600020600101600101541161112a576040517f08c379a000000000000000000000000000000000000000000000000000000000815260040161112190612690565b60405180910390fd5b6000600760006004600085815260200190815260200160002060010160020160009054906101000a900473ffffffffffffffffffffffffffffffffffffffff1673ffffffffffffffffffffffffffffffffffffffff1673ffffffffffffffffffffffffffffffffffffffff16815260200190815260200160002060003373ffffffffffffffffffffffffffffffffffffffff1673ffffffffffffffffffffffffffffffffffffffff1681526020019081526020016000205411611222576040517f08c379a0000000000000000000000000000000000000000000000000000000008152600401611219906126fc565b60405180910390fd5b6004600082815260200190815260200160002060010160030160009054906101000a900473ffffffffffffffffffffffffffffffffffffffff1673ffffffffffffffffffffffffffffffffffffffff166323b872dd6004600084815260200190815260200160002060010160020160009054906101000a900473ffffffffffffffffffffffffffffffffffffffff163368056bc75e2d631000006040518463ffffffff1660e01b81526004016112da93929190612757565b602060405180830381600087803b1580156112f457600080fd5b505af1158015611308573d6000803e3d6000fd5b505050506040513d601f19601f8201168201806040525081019061132c9190612350565b50600160009054906101000a900473ffffffffffffffffffffffffffffffffffffffff1673ffffffffffffffffffffffffffffffffffffffff166342966c68826040518263ffffffff1660e01b815260040161138891906115c3565b600060405180830381600087803b1580156113a257600080fd5b505af11580156113b6573d6000803e3d6000fd5b5050505050565b6113c56114ff565b73ffffffffffffffffffffffffffffffffffffffff166113e36102ab565b73ffffffffffffffffffffffffffffffffffffffff1614611439576040517f08c379a0000000000000000000000000000000000000000000000000000000008152600401611430906127da565b60405180910390fd5b565b60008060009054906101000a900473ffffffffffffffffffffffffffffffffffffffff169050816000806101000a81548173ffffffffffffffffffffffffffffffffffffffff021916908373ffffffffffffffffffffffffffffffffffffffff1602179055508173ffffffffffffffffffffffffffffffffffffffff168173ffffffffffffffffffffffffffffffffffffffff167f8be0079c531659141344cd1fd0a4f28419497f9722a3daafe3b4186f6b6457e060405160405180910390a35050565b600033905090565b82805461151390611c46565b90600052602060002090601f016020900481019282611535576000855561157c565b82601f1061154e57805160ff191683800117855561157c565b8280016001018555821561157c579182015b8281111561157b578251825591602001919060010190611560565b5b509050611589919061158d565b5090565b5b808211156115a657600081600090555060010161158e565b5090565b6000819050919050565b6115bd816115aa565b82525050565b60006020820190506115d860008301846115b4565b92915050565b600073ffffffffffffffffffffffffffffffffffffffff82169050919050565b6000611609826115de565b9050919050565b611619816115fe565b82525050565b60006020820190506116346000830184611610565b92915050565b6000604051905090565b600080fd5b600080fd5b611657816115fe565b811461166257600080fd5b50565b6000813590506116748161164e565b92915050565b6000806040838503121561169157611690611644565b5b600061169f85828601611665565b92505060206116b085828601611665565b9150509250929050565b60006116c5826115fe565b9050919050565b6116d5816116ba565b81146116e057600080fd5b50565b6000813590506116f2816116cc565b92915050565b60006020828403121561170e5761170d611644565b5b600061171c848285016116e3565b91505092915050565b61172e816115aa565b811461173957600080fd5b50565b60008135905061174b81611725565b92915050565b60006020828403121561176757611766611644565b5b60006117758482850161173c565b91505092915050565b600060ff82169050919050565b6117948161177e565b82525050565b6117a3816115aa565b82525050565b6117b2816115fe565b82525050565b600081519050919050565b600082825260208201905092915050565b60005b838110156117f25780820151818401526020810190506117d7565b83811115611801576000848401525b50505050565b6000601f19601f8301169050919050565b6000611823826117b8565b61182d81856117c3565b935061183d8185602086016117d4565b61184681611807565b840191505092915050565b600060e083016000830151611869600086018261178b565b50602083015161187c602086018261178b565b50604083015161188f604086018261179a565b5060608301516118a260608601826117a9565b5060808301516118b560808601826117a9565b5060a08301516118c860a08601826117a9565b5060c083015184820360c08601526118e08282611818565b9150508091505092915050565b60006040820190506119026000830185611610565b81810360208301526119148184611851565b90509392505050565b60006020828403121561193357611932611644565b5b600061194184828501611665565b91505092915050565b6119538161177e565b82525050565b600082825260208201905092915050565b6000611975826117b8565b61197f8185611959565b935061198f8185602086016117d4565b61199881611807565b840191505092915050565b600060e0820190506119b8600083018a61194a565b6119c5602083018961194a565b6119d260408301886115b4565b6119df6060830187611610565b6119ec6080830186611610565b6119f960a0830185611610565b81810360c0830152611a0b818461196a565b905098975050505050505050565b600080fd5b600060e08284031215611a3457611a33611a19565b5b81905092915050565b600060208284031215611a5357611a52611644565b5b600082013567ffffffffffffffff811115611a7157611a70611649565b5b611a7d84828501611a1e565b91505092915050565b600080fd5b600080fd5b7f4e487b7100000000000000000000000000000000000000000000000000000000600052604160045260246000fd5b611ac882611807565b810181811067ffffffffffffffff82111715611ae757611ae6611a90565b5b80604052505050565b6000611afa61163a565b9050611b068282611abf565b919050565b600067ffffffffffffffff821115611b2657611b25611a90565b5b611b2f82611807565b9050602081019050919050565b82818337600083830152505050565b6000611b5e611b5984611b0b565b611af0565b905082815260208101848484011115611b7a57611b79611a8b565b5b611b85848285611b3c565b509392505050565b600082601f830112611ba257611ba1611a86565b5b8135611bb2848260208601611b4b565b91505092915050565b60008060408385031215611bd257611bd1611644565b5b6000611be085828601611665565b925050602083013567ffffffffffffffff811115611c0157611c00611649565b5b611c0d85828601611b8d565b9150509250929050565b7f4e487b7100000000000000000000000000000000000000000000000000000000600052602260045260246000fd5b60006002820490506001821680611c5e57607f821691505b60208210811415611c7257611c71611c17565b5b50919050565b611c818161177e565b8114611c8c57600080fd5b50565b60008135611c9c81611c78565b80915050919050565b60008160001b9050919050565b600060ff611cbf84611ca5565b9350801983169250808416831791505092915050565b6000819050919050565b6000611cfa611cf5611cf08461177e565b611cd5565b61177e565b9050919050565b6000819050919050565b611d1482611cdf565b611d27611d2082611d01565b8354611cb2565b8255505050565b60008160081b9050919050565b600061ff00611d4984611d2e565b9350801983169250808416831791505092915050565b611d6882611cdf565b611d7b611d7482611d01565b8354611d3b565b8255505050565b60008135611d8f81611725565b80915050919050565b60007fffffffffffffffffffffffffffffffffffffffffffffffffffffffffffffffff611dc484611ca5565b9350801983169250808416831791505092915050565b6000611df5611df0611deb846115aa565b611cd5565b6115aa565b9050919050565b6000819050919050565b611e0f82611dda565b611e22611e1b82611dfc565b8354611d98565b8255505050565b60008135611e368161164e565b80915050919050565b600073ffffffffffffffffffffffffffffffffffffffff611e5f84611ca5565b9350801983169250808416831791505092915050565b6000611e90611e8b611e86846115de565b611cd5565b6115de565b9050919050565b6000611ea282611e75565b9050919050565b6000611eb482611e97565b9050919050565b6000819050919050565b611ece82611ea9565b611ee1611eda82611ebb565b8354611e3f565b8255505050565b600080fd5b600080fd5b600080fd5b60008083356001602003843603038112611f1457611f13611ee8565b5b80840192508235915067ffffffffffffffff821115611f3657611f35611eed565b5b602083019250600182023603831315611f5257611f51611ef2565b5b509250929050565b600082905092915050565b60008190508160005260206000209050919050565b60006020601f8301049050919050565b600082821b905092915050565b600060088302611fc77fffffffffffffffffffffffffffffffffffffffffffffffffffffffffffffffff82611f8a565b611fd18683611f8a565b95508019841693508086168417925050509392505050565b611ff283611dda565b612006611ffe82611dfc565b848454611f97565b825550505050565b600090565b61201b61200e565b612026818484611fe9565b505050565b5b8181101561204a5761203f600082612013565b60018101905061202c565b5050565b601f82111561208f5761206081611f65565b61206984611f7a565b81016020851015612078578190505b61208c61208485611f7a565b83018261202b565b50505b505050565b600082821c905092915050565b60006120b260001984600802612094565b1980831691505092915050565b60006120cb83836120a1565b9150826002028217905092915050565b6120e58383611f5a565b67ffffffffffffffff8111156120fe576120fd611a90565b5b6121088254611c46565b61211382828561204e565b6000601f8311600181146121425760008415612130578287013590505b61213a85826120bf565b8655506121a2565b601f19841661215086611f65565b60005b8281101561217857848901358255600182019150602085019450602081019050612153565b868310156121955784890135612191601f8916826120a1565b8355505b6001600288020188555050505b50505050505050565b6121b68383836120db565b505050565b6000810160008301806121cd81611c8f565b90506121d98184611d0b565b5050506000810160208301806121ee81611c8f565b90506121fa8184611d5f565b50505060018101604083018061220f81611d82565b905061221b8184611e06565b50505060028101606083018061223081611e29565b905061223c8184611ec5565b50505060038101608083018061225181611e29565b905061225d8184611ec5565b5050506004810160a083018061227281611e29565b905061227e8184611ec5565b5050506005810160c083016122938185611ef7565b61229e8183866121ab565b505050505050565b6122b082826121bb565b5050565b6000819050919050565b60006122d96122d46122cf846122b4565b611cd5565b6115aa565b9050919050565b6122e9816122be565b82525050565b60006040820190506123046000830185611610565b61231160208301846122e0565b9392505050565b60008115159050919050565b61232d81612318565b811461233857600080fd5b50565b60008151905061234a81612324565b92915050565b60006020828403121561236657612365611644565b5b60006123748482850161233b565b91505092915050565b7f4e487b7100000000000000000000000000000000000000000000000000000000600052601160045260246000fd5b60006123b7826115aa565b91506123c2836115aa565b9250827fffffffffffffffffffffffffffffffffffffffffffffffffffffffffffffffff038211156123f7576123f661237d565b5b828201905092915050565b7f4f776e61626c653a206e6577206f776e657220697320746865207a65726f206160008201527f6464726573730000000000000000000000000000000000000000000000000000602082015250565b600061245e602683611959565b915061246982612402565b604082019050919050565b6000602082019050818103600083015261248d81612451565b9050919050565b7f536f6c64206f7574000000000000000000000000000000000000000000000000600082015250565b60006124ca600883611959565b91506124d582612494565b602082019050919050565b600060208201905081810360008301526124f9816124bd565b9050919050565b600061250b8261177e565b91506125168361177e565b92508260ff0382111561252c5761252b61237d565b5b828201905092915050565b600068ffffffffffffffffff82169050919050565b7f4e487b7100000000000000000000000000000000000000000000000000000000600052601260045260246000fd5b600061258682612537565b915061259183612537565b9250826125a1576125a061254c565b5b828204905092915050565b60006125c76125c26125bd84612537565b611cd5565b6115aa565b9050919050565b6125d7816125ac565b82525050565b60006060820190506125f26000830186611610565b6125ff6020830185611610565b61260c60408301846125ce565b949350505050565b60006040820190506126296000830185611610565b818103602083015261263b818461196a565b90509392505050565b7f426f6e6420657870697265640000000000000000000000000000000000000000600082015250565b600061267a600c83611959565b915061268582612644565b602082019050919050565b600060208201905081810360008301526126a98161266d565b9050919050565b7f4e6f20626f6e6473206f776e6564000000000000000000000000000000000000600082015250565b60006126e6600e83611959565b91506126f1826126b0565b602082019050919050565b60006020820190508181036000830152612715816126d9565b9050919050565b6000819050919050565b600061274161273c6127378461271c565b611cd5565b6115aa565b9050919050565b61275181612726565b82525050565b600060608201905061276c6000830186611610565b6127796020830185611610565b6127866040830184612748565b949350505050565b7f4f776e61626c653a2063616c6c6572206973206e6f7420746865206f776e6572600082015250565b60006127c4602083611959565b91506127cf8261278e565b602082019050919050565b600060208201905081810360008301526127f3816127b7565b905091905056fea26469706673582212209d707d42be55b832fc383cdfe59f017505ecad71b34aceb1e57abd8452fab59764736f6c63430008090033",
  "linkReferences": {},
  "deployedLinkReferences": {}
}