{
  "_format": "hh-sol-artifact-1",
  "contractName": "DAOPlexBond",
  "sourceName": "contracts/DAOPlexBond.sol",
  "abi": [
    {
      "inputs": [],
      "stateMutability": "nonpayable",
      "type": "constructor"
    },
    {
      "anonymous": false,
      "inputs": [
        {
          "indexed": true,
          "internalType": "address",
          "name": "owner",
          "type": "address"
        },
        {
          "indexed": true,
          "internalType": "address",
          "name": "approved",
          "type": "address"
        },
        {
          "indexed": true,
          "internalType": "uint256",
          "name": "tokenId",
          "type": "uint256"
        }
      ],
      "name": "Approval",
      "type": "event"
    },
    {
      "anonymous": false,
      "inputs": [
        {
          "indexed": true,
          "internalType": "address",
          "name": "owner",
          "type": "address"
        },
        {
          "indexed": true,
          "internalType": "address",
          "name": "operator",
          "type": "address"
        },
        {
          "indexed": false,
          "internalType": "bool",
          "name": "approved",
          "type": "bool"
        }
      ],
      "name": "ApprovalForAll",
      "type": "event"
    },
    {
      "anonymous": false,
      "inputs": [
        {
          "indexed": true,
          "internalType": "bytes32",
          "name": "role",
          "type": "bytes32"
        },
        {
          "indexed": true,
          "internalType": "bytes32",
          "name": "previousAdminRole",
          "type": "bytes32"
        },
        {
          "indexed": true,
          "internalType": "bytes32",
          "name": "newAdminRole",
          "type": "bytes32"
        }
      ],
      "name": "RoleAdminChanged",
      "type": "event"
    },
    {
      "anonymous": false,
      "inputs": [
        {
          "indexed": true,
          "internalType": "bytes32",
          "name": "role",
          "type": "bytes32"
        },
        {
          "indexed": true,
          "internalType": "address",
          "name": "account",
          "type": "address"
        },
        {
          "indexed": true,
          "internalType": "address",
          "name": "sender",
          "type": "address"
        }
      ],
      "name": "RoleGranted",
      "type": "event"
    },
    {
      "anonymous": false,
      "inputs": [
        {
          "indexed": true,
          "internalType": "bytes32",
          "name": "role",
          "type": "bytes32"
        },
        {
          "indexed": true,
          "internalType": "address",
          "name": "account",
          "type": "address"
        },
        {
          "indexed": true,
          "internalType": "address",
          "name": "sender",
          "type": "address"
        }
      ],
      "name": "RoleRevoked",
      "type": "event"
    },
    {
      "anonymous": false,
      "inputs": [
        {
          "indexed": true,
          "internalType": "address",
          "name": "from",
          "type": "address"
        },
        {
          "indexed": true,
          "internalType": "address",
          "name": "to",
          "type": "address"
        },
        {
          "indexed": true,
          "internalType": "uint256",
          "name": "tokenId",
          "type": "uint256"
        }
      ],
      "name": "Transfer",
      "type": "event"
    },
    {
      "inputs": [],
      "name": "BURNER_ROLE",
      "outputs": [
        {
          "internalType": "bytes32",
          "name": "",
          "type": "bytes32"
        }
      ],
      "stateMutability": "view",
      "type": "function"
    },
    {
      "inputs": [],
      "name": "DEFAULT_ADMIN_ROLE",
      "outputs": [
        {
          "internalType": "bytes32",
          "name": "",
          "type": "bytes32"
        }
      ],
      "stateMutability": "view",
      "type": "function"
    },
    {
      "inputs": [],
      "name": "MINTER_ROLE",
      "outputs": [
        {
          "internalType": "bytes32",
          "name": "",
          "type": "bytes32"
        }
      ],
      "stateMutability": "view",
      "type": "function"
    },
    {
      "inputs": [
        {
          "internalType": "address",
          "name": "to",
          "type": "address"
        },
        {
          "internalType": "uint256",
          "name": "tokenId",
          "type": "uint256"
        }
      ],
      "name": "approve",
      "outputs": [],
      "stateMutability": "nonpayable",
      "type": "function"
    },
    {
      "inputs": [
        {
          "internalType": "address",
          "name": "owner",
          "type": "address"
        }
      ],
      "name": "balanceOf",
      "outputs": [
        {
          "internalType": "uint256",
          "name": "",
          "type": "uint256"
        }
      ],
      "stateMutability": "view",
      "type": "function"
    },
    {
      "inputs": [
        {
          "internalType": "uint256",
          "name": "tokenId",
          "type": "uint256"
        }
      ],
      "name": "burn",
      "outputs": [],
      "stateMutability": "nonpayable",
      "type": "function"
    },
    {
      "inputs": [
        {
          "internalType": "uint256",
          "name": "tokenId",
          "type": "uint256"
        }
      ],
      "name": "getApproved",
      "outputs": [
        {
          "internalType": "address",
          "name": "",
          "type": "address"
        }
      ],
      "stateMutability": "view",
      "type": "function"
    },
    {
      "inputs": [
        {
          "internalType": "bytes32",
          "name": "role",
          "type": "bytes32"
        }
      ],
      "name": "getRoleAdmin",
      "outputs": [
        {
          "internalType": "bytes32",
          "name": "",
          "type": "bytes32"
        }
      ],
      "stateMutability": "view",
      "type": "function"
    },
    {
      "inputs": [
        {
          "internalType": "bytes32",
          "name": "role",
          "type": "bytes32"
        },
        {
          "internalType": "address",
          "name": "account",
          "type": "address"
        }
      ],
      "name": "grantRole",
      "outputs": [],
      "stateMutability": "nonpayable",
      "type": "function"
    },
    {
      "inputs": [
        {
          "internalType": "bytes32",
          "name": "role",
          "type": "bytes32"
        },
        {
          "internalType": "address",
          "name": "account",
          "type": "address"
        }
      ],
      "name": "hasRole",
      "outputs": [
        {
          "internalType": "bool",
          "name": "",
          "type": "bool"
        }
      ],
      "stateMutability": "view",
      "type": "function"
    },
    {
      "inputs": [
        {
          "internalType": "address",
          "name": "owner",
          "type": "address"
        },
        {
          "internalType": "address",
          "name": "operator",
          "type": "address"
        }
      ],
      "name": "isApprovedForAll",
      "outputs": [
        {
          "internalType": "bool",
          "name": "",
          "type": "bool"
        }
      ],
      "stateMutability": "view",
      "type": "function"
    },
    {
      "inputs": [],
      "name": "name",
      "outputs": [
        {
          "internalType": "string",
          "name": "",
          "type": "string"
        }
      ],
      "stateMutability": "view",
      "type": "function"
    },
    {
      "inputs": [
        {
          "internalType": "uint256",
          "name": "tokenId",
          "type": "uint256"
        }
      ],
      "name": "ownerOf",
      "outputs": [
        {
          "internalType": "address",
          "name": "",
          "type": "address"
        }
      ],
      "stateMutability": "view",
      "type": "function"
    },
    {
      "inputs": [
        {
          "internalType": "bytes32",
          "name": "role",
          "type": "bytes32"
        },
        {
          "internalType": "address",
          "name": "account",
          "type": "address"
        }
      ],
      "name": "renounceRole",
      "outputs": [],
      "stateMutability": "nonpayable",
      "type": "function"
    },
    {
      "inputs": [
        {
          "internalType": "bytes32",
          "name": "role",
          "type": "bytes32"
        },
        {
          "internalType": "address",
          "name": "account",
          "type": "address"
        }
      ],
      "name": "revokeRole",
      "outputs": [],
      "stateMutability": "nonpayable",
      "type": "function"
    },
    {
      "inputs": [
        {
          "internalType": "address",
          "name": "to",
          "type": "address"
        },
        {
          "internalType": "string",
          "name": "uri",
          "type": "string"
        }
      ],
      "name": "safeMint",
      "outputs": [],
      "stateMutability": "nonpayable",
      "type": "function"
    },
    {
      "inputs": [
        {
          "internalType": "address",
          "name": "from",
          "type": "address"
        },
        {
          "internalType": "address",
          "name": "to",
          "type": "address"
        },
        {
          "internalType": "uint256",
          "name": "tokenId",
          "type": "uint256"
        }
      ],
      "name": "safeTransferFrom",
      "outputs": [],
      "stateMutability": "nonpayable",
      "type": "function"
    },
    {
      "inputs": [
        {
          "internalType": "address",
          "name": "from",
          "type": "address"
        },
        {
          "internalType": "address",
          "name": "to",
          "type": "address"
        },
        {
          "internalType": "uint256",
          "name": "tokenId",
          "type": "uint256"
        },
        {
          "internalType": "bytes",
          "name": "data",
          "type": "bytes"
        }
      ],
      "name": "safeTransferFrom",
      "outputs": [],
      "stateMutability": "nonpayable",
      "type": "function"
    },
    {
      "inputs": [
        {
          "internalType": "address",
          "name": "operator",
          "type": "address"
        },
        {
          "internalType": "bool",
          "name": "approved",
          "type": "bool"
        }
      ],
      "name": "setApprovalForAll",
      "outputs": [],
      "stateMutability": "nonpayable",
      "type": "function"
    },
    {
      "inputs": [
        {
          "internalType": "bytes4",
          "name": "interfaceId",
          "type": "bytes4"
        }
      ],
      "name": "supportsInterface",
      "outputs": [
        {
          "internalType": "bool",
          "name": "",
          "type": "bool"
        }
      ],
      "stateMutability": "view",
      "type": "function"
    },
    {
      "inputs": [],
      "name": "symbol",
      "outputs": [
        {
          "internalType": "string",
          "name": "",
          "type": "string"
        }
      ],
      "stateMutability": "view",
      "type": "function"
    },
    {
      "inputs": [
        {
          "internalType": "uint256",
          "name": "tokenId",
          "type": "uint256"
        }
      ],
      "name": "tokenURI",
      "outputs": [
        {
          "internalType": "string",
          "name": "",
          "type": "string"
        }
      ],
      "stateMutability": "view",
      "type": "function"
    },
    {
      "inputs": [
        {
          "internalType": "address",
          "name": "from",
          "type": "address"
        },
        {
          "internalType": "address",
          "name": "to",
          "type": "address"
        },
        {
          "internalType": "uint256",
          "name": "tokenId",
          "type": "uint256"
        }
      ],
      "name": "transferFrom",
      "outputs": [],
      "stateMutability": "nonpayable",
      "type": "function"
    }
  ],
  "bytecode": "0x60806040523480156200001157600080fd5b506040518060400160405280600c81526020017f44414f706c657820426f6e6400000000000000000000000000000000000000008152506040518060400160405280600381526020017f445042000000000000000000000000000000000000000000000000000000000081525081600090805190602001906200009692919062000264565b508060019080519060200190620000af92919062000264565b505050620000c76000801b33620000ff60201b60201c565b620000f97f9f2df0fed2c77648de5860a4cc508cd0818c85b8b8a1ab4ceeef8d981c8956a633620000ff60201b60201c565b62000379565b620001118282620001f160201b60201c565b620001ed5760016007600084815260200190815260200160002060000160008373ffffffffffffffffffffffffffffffffffffffff1673ffffffffffffffffffffffffffffffffffffffff16815260200190815260200160002060006101000a81548160ff021916908315150217905550620001926200025c60201b60201c565b73ffffffffffffffffffffffffffffffffffffffff168173ffffffffffffffffffffffffffffffffffffffff16837f2f8788117e7eff1d82e926ec794901d17c78024a50270940304540a733656f0d60405160405180910390a45b5050565b60006007600084815260200190815260200160002060000160008373ffffffffffffffffffffffffffffffffffffffff1673ffffffffffffffffffffffffffffffffffffffff16815260200190815260200160002060009054906101000a900460ff16905092915050565b600033905090565b828054620002729062000343565b90600052602060002090601f016020900481019282620002965760008555620002e2565b82601f10620002b157805160ff1916838001178555620002e2565b82800160010185558215620002e2579182015b82811115620002e1578251825591602001919060010190620002c4565b5b509050620002f19190620002f5565b5090565b5b8082111562000310576000816000905550600101620002f6565b5090565b7f4e487b7100000000000000000000000000000000000000000000000000000000600052602260045260246000fd5b600060028204905060018216806200035c57607f821691505b6020821081141562000373576200037262000314565b5b50919050565b6136e480620003896000396000f3fe608060405234801561001057600080fd5b506004361061014d5760003560e01c80636352211e116100c3578063b88d4fde1161007c578063b88d4fde146103ae578063c87b56dd146103ca578063d204c45e146103fa578063d539139314610416578063d547741f14610434578063e985e9c5146104505761014d565b80636352211e146102c657806370a08231146102f657806391d148541461032657806395d89b4114610356578063a217fddf14610374578063a22cb465146103925761014d565b8063248a9ca311610115578063248a9ca314610208578063282c51f3146102385780632f2ff15d1461025657806336568abe1461027257806342842e0e1461028e57806342966c68146102aa5761014d565b806301ffc9a71461015257806306fdde0314610182578063081812fc146101a0578063095ea7b3146101d057806323b872dd146101ec575b600080fd5b61016c60048036038101906101679190612393565b610480565b60405161017991906123db565b60405180910390f35b61018a610492565b604051610197919061248f565b60405180910390f35b6101ba60048036038101906101b591906124e7565b610524565b6040516101c79190612555565b60405180910390f35b6101ea60048036038101906101e5919061259c565b61056a565b005b610206600480360381019061020191906125dc565b610682565b005b610222600480360381019061021d9190612665565b6106e2565b60405161022f91906126a1565b60405180910390f35b610240610702565b60405161024d91906126a1565b60405180910390f35b610270600480360381019061026b91906126bc565b610726565b005b61028c600480360381019061028791906126bc565b610747565b005b6102a860048036038101906102a391906125dc565b6107ca565b005b6102c460048036038101906102bf91906124e7565b6107ea565b005b6102e060048036038101906102db91906124e7565b610846565b6040516102ed9190612555565b60405180910390f35b610310600480360381019061030b91906126fc565b6108f8565b60405161031d9190612738565b60405180910390f35b610340600480360381019061033b91906126bc565b6109b0565b60405161034d91906123db565b60405180910390f35b61035e610a1b565b60405161036b919061248f565b60405180910390f35b61037c610aad565b60405161038991906126a1565b60405180910390f35b6103ac60048036038101906103a7919061277f565b610ab4565b005b6103c860048036038101906103c391906128f4565b610aca565b005b6103e460048036038101906103df91906124e7565b610b2c565b6040516103f1919061248f565b60405180910390f35b610414600480360381019061040f9190612a18565b610b3e565b005b61041e610b9a565b60405161042b91906126a1565b60405180910390f35b61044e600480360381019061044991906126bc565b610bbe565b005b61046a60048036038101906104659190612a74565b610bdf565b60405161047791906123db565b60405180910390f35b600061048b82610c73565b9050919050565b6060600080546104a190612ae3565b80601f01602080910402602001604051908101604052809291908181526020018280546104cd90612ae3565b801561051a5780601f106104ef5761010080835404028352916020019161051a565b820191906000526020600020905b8154815290600101906020018083116104fd57829003601f168201915b5050505050905090565b600061052f82610ced565b6004600083815260200190815260200160002060009054906101000a900473ffffffffffffffffffffffffffffffffffffffff169050919050565b600061057582610846565b90508073ffffffffffffffffffffffffffffffffffffffff168373ffffffffffffffffffffffffffffffffffffffff1614156105e6576040517f08c379a00000000000000000000000000000000000000000000000000000000081526004016105dd90612b87565b60405180910390fd5b8073ffffffffffffffffffffffffffffffffffffffff16610605610d38565b73ffffffffffffffffffffffffffffffffffffffff16148061063457506106338161062e610d38565b610bdf565b5b610673576040517f08c379a000000000000000000000000000000000000000000000000000000000815260040161066a90612c19565b60405180910390fd5b61067d8383610d40565b505050565b61069361068d610d38565b82610df9565b6106d2576040517f08c379a00000000000000000000000000000000000000000000000000000000081526004016106c990612cab565b60405180910390fd5b6106dd838383610e8e565b505050565b600060076000838152602001908152602001600020600101549050919050565b7f3c11d16cbaffd01df69ce1c404f6340ee057498f5f00246190ea54220576a84881565b61072f826106e2565b610738816110f5565b6107428383611109565b505050565b61074f610d38565b73ffffffffffffffffffffffffffffffffffffffff168173ffffffffffffffffffffffffffffffffffffffff16146107bc576040517f08c379a00000000000000000000000000000000000000000000000000000000081526004016107b390612d3d565b60405180910390fd5b6107c682826111ea565b5050565b6107e583838360405180602001604052806000815250610aca565b505050565b6107fb6107f5610d38565b82610df9565b61083a576040517f08c379a000000000000000000000000000000000000000000000000000000000815260040161083190612cab565b60405180910390fd5b610843816112cc565b50565b6000806002600084815260200190815260200160002060009054906101000a900473ffffffffffffffffffffffffffffffffffffffff169050600073ffffffffffffffffffffffffffffffffffffffff168173ffffffffffffffffffffffffffffffffffffffff1614156108ef576040517f08c379a00000000000000000000000000000000000000000000000000000000081526004016108e690612da9565b60405180910390fd5b80915050919050565b60008073ffffffffffffffffffffffffffffffffffffffff168273ffffffffffffffffffffffffffffffffffffffff161415610969576040517f08c379a000000000000000000000000000000000000000000000000000000000815260040161096090612e3b565b60405180910390fd5b600360008373ffffffffffffffffffffffffffffffffffffffff1673ffffffffffffffffffffffffffffffffffffffff168152602001908152602001600020549050919050565b60006007600084815260200190815260200160002060000160008373ffffffffffffffffffffffffffffffffffffffff1673ffffffffffffffffffffffffffffffffffffffff16815260200190815260200160002060009054906101000a900460ff16905092915050565b606060018054610a2a90612ae3565b80601f0160208091040260200160405190810160405280929190818152602001828054610a5690612ae3565b8015610aa35780601f10610a7857610100808354040283529160200191610aa3565b820191906000526020600020905b815481529060010190602001808311610a8657829003601f168201915b5050505050905090565b6000801b81565b610ac6610abf610d38565b83836112d8565b5050565b610adb610ad5610d38565b83610df9565b610b1a576040517f08c379a0000000000000000000000000000000000000000000000000000000008152600401610b1190612cab565b60405180910390fd5b610b2684848484611445565b50505050565b6060610b37826114a1565b9050919050565b7f9f2df0fed2c77648de5860a4cc508cd0818c85b8b8a1ab4ceeef8d981c8956a6610b68816110f5565b6000610b7460086115b4565b9050610b8060086115c2565b610b8a84826115d8565b610b9481846115f6565b50505050565b7f9f2df0fed2c77648de5860a4cc508cd0818c85b8b8a1ab4ceeef8d981c8956a681565b610bc7826106e2565b610bd0816110f5565b610bda83836111ea565b505050565b6000600560008473ffffffffffffffffffffffffffffffffffffffff1673ffffffffffffffffffffffffffffffffffffffff16815260200190815260200160002060008373ffffffffffffffffffffffffffffffffffffffff1673ffffffffffffffffffffffffffffffffffffffff16815260200190815260200160002060009054906101000a900460ff16905092915050565b60007f7965db0b000000000000000000000000000000000000000000000000000000007bffffffffffffffffffffffffffffffffffffffffffffffffffffffff1916827bffffffffffffffffffffffffffffffffffffffffffffffffffffffff19161480610ce65750610ce58261166a565b5b9050919050565b610cf68161174c565b610d35576040517f08c379a0000000000000000000000000000000000000000000000000000000008152600401610d2c90612da9565b60405180910390fd5b50565b600033905090565b816004600083815260200190815260200160002060006101000a81548173ffffffffffffffffffffffffffffffffffffffff021916908373ffffffffffffffffffffffffffffffffffffffff160217905550808273ffffffffffffffffffffffffffffffffffffffff16610db383610846565b73ffffffffffffffffffffffffffffffffffffffff167f8c5be1e5ebec7d5bd14f71427d1e84f3dd0314c0f7b2291e5b200ac8c7c3b92560405160405180910390a45050565b600080610e0583610846565b90508073ffffffffffffffffffffffffffffffffffffffff168473ffffffffffffffffffffffffffffffffffffffff161480610e475750610e468185610bdf565b5b80610e8557508373ffffffffffffffffffffffffffffffffffffffff16610e6d84610524565b73ffffffffffffffffffffffffffffffffffffffff16145b91505092915050565b8273ffffffffffffffffffffffffffffffffffffffff16610eae82610846565b73ffffffffffffffffffffffffffffffffffffffff1614610f04576040517f08c379a0000000000000000000000000000000000000000000000000000000008152600401610efb90612ecd565b60405180910390fd5b600073ffffffffffffffffffffffffffffffffffffffff168273ffffffffffffffffffffffffffffffffffffffff161415610f74576040517f08c379a0000000000000000000000000000000000000000000000000000000008152600401610f6b90612f5f565b60405180910390fd5b610f7f8383836117b8565b610f8a600082610d40565b6001600360008573ffffffffffffffffffffffffffffffffffffffff1673ffffffffffffffffffffffffffffffffffffffff1681526020019081526020016000206000828254610fda9190612fae565b925050819055506001600360008473ffffffffffffffffffffffffffffffffffffffff1673ffffffffffffffffffffffffffffffffffffffff16815260200190815260200160002060008282546110319190612fe2565b92505081905550816002600083815260200190815260200160002060006101000a81548173ffffffffffffffffffffffffffffffffffffffff021916908373ffffffffffffffffffffffffffffffffffffffff160217905550808273ffffffffffffffffffffffffffffffffffffffff168473ffffffffffffffffffffffffffffffffffffffff167fddf252ad1be2c89b69c2b068fc378daa952ba7f163c4a11628f55a4df523b3ef60405160405180910390a46110f08383836117bd565b505050565b61110681611101610d38565b6117c2565b50565b61111382826109b0565b6111e65760016007600084815260200190815260200160002060000160008373ffffffffffffffffffffffffffffffffffffffff1673ffffffffffffffffffffffffffffffffffffffff16815260200190815260200160002060006101000a81548160ff02191690831515021790555061118b610d38565b73ffffffffffffffffffffffffffffffffffffffff168173ffffffffffffffffffffffffffffffffffffffff16837f2f8788117e7eff1d82e926ec794901d17c78024a50270940304540a733656f0d60405160405180910390a45b5050565b6111f482826109b0565b156112c85760006007600084815260200190815260200160002060000160008373ffffffffffffffffffffffffffffffffffffffff1673ffffffffffffffffffffffffffffffffffffffff16815260200190815260200160002060006101000a81548160ff02191690831515021790555061126d610d38565b73ffffffffffffffffffffffffffffffffffffffff168173ffffffffffffffffffffffffffffffffffffffff16837ff6391f5c32d9c69d2a47ea670b442974b53935d1edc7fd64eb21e047a839171b60405160405180910390a45b5050565b6112d58161185f565b50565b8173ffffffffffffffffffffffffffffffffffffffff168373ffffffffffffffffffffffffffffffffffffffff161415611347576040517f08c379a000000000000000000000000000000000000000000000000000000000815260040161133e90613084565b60405180910390fd5b80600560008573ffffffffffffffffffffffffffffffffffffffff1673ffffffffffffffffffffffffffffffffffffffff16815260200190815260200160002060008473ffffffffffffffffffffffffffffffffffffffff1673ffffffffffffffffffffffffffffffffffffffff16815260200190815260200160002060006101000a81548160ff0219169083151502179055508173ffffffffffffffffffffffffffffffffffffffff168373ffffffffffffffffffffffffffffffffffffffff167f17307eab39ab6107e8899845ad3d59bd9653f200f220920489ca2b5937696c318360405161143891906123db565b60405180910390a3505050565b611450848484610e8e565b61145c848484846118b2565b61149b576040517f08c379a000000000000000000000000000000000000000000000000000000000815260040161149290613116565b60405180910390fd5b50505050565b60606114ac82610ced565b60006006600084815260200190815260200160002080546114cc90612ae3565b80601f01602080910402602001604051908101604052809291908181526020018280546114f890612ae3565b80156115455780601f1061151a57610100808354040283529160200191611545565b820191906000526020600020905b81548152906001019060200180831161152857829003601f168201915b505050505090506000611556611a49565b905060008151141561156c5781925050506115af565b6000825111156115a1578082604051602001611589929190613172565b604051602081830303815290604052925050506115af565b6115aa84611a60565b925050505b919050565b600081600001549050919050565b6001816000016000828254019250508190555050565b6115f2828260405180602001604052806000815250611ac8565b5050565b6115ff8261174c565b61163e576040517f08c379a000000000000000000000000000000000000000000000000000000000815260040161163590613208565b60405180910390fd5b80600660008481526020019081526020016000209080519060200190611665929190612244565b505050565b60007f80ac58cd000000000000000000000000000000000000000000000000000000007bffffffffffffffffffffffffffffffffffffffffffffffffffffffff1916827bffffffffffffffffffffffffffffffffffffffffffffffffffffffff1916148061173557507f5b5e139f000000000000000000000000000000000000000000000000000000007bffffffffffffffffffffffffffffffffffffffffffffffffffffffff1916827bffffffffffffffffffffffffffffffffffffffffffffffffffffffff1916145b80611745575061174482611b23565b5b9050919050565b60008073ffffffffffffffffffffffffffffffffffffffff166002600084815260200190815260200160002060009054906101000a900473ffffffffffffffffffffffffffffffffffffffff1673ffffffffffffffffffffffffffffffffffffffff1614159050919050565b505050565b505050565b6117cc82826109b0565b61185b576117f18173ffffffffffffffffffffffffffffffffffffffff166014611b8d565b6117ff8360001c6020611b8d565b6040516020016118109291906132c0565b6040516020818303038152906040526040517f08c379a0000000000000000000000000000000000000000000000000000000008152600401611852919061248f565b60405180910390fd5b5050565b61186881611dc9565b600060066000838152602001908152602001600020805461188890612ae3565b9050146118af576006600082815260200190815260200160002060006118ae91906122ca565b5b50565b60006118d38473ffffffffffffffffffffffffffffffffffffffff16611ee6565b15611a3c578373ffffffffffffffffffffffffffffffffffffffff1663150b7a026118fc610d38565b8786866040518563ffffffff1660e01b815260040161191e949392919061334f565b602060405180830381600087803b15801561193857600080fd5b505af192505050801561196957506040513d601f19601f8201168201806040525081019061196691906133b0565b60015b6119ec573d8060008114611999576040519150601f19603f3d011682016040523d82523d6000602084013e61199e565b606091505b506000815114156119e4576040517f08c379a00000000000000000000000000000000000000000000000000000000081526004016119db90613116565b60405180910390fd5b805181602001fd5b63150b7a0260e01b7bffffffffffffffffffffffffffffffffffffffffffffffffffffffff1916817bffffffffffffffffffffffffffffffffffffffffffffffffffffffff191614915050611a41565b600190505b949350505050565b606060405180602001604052806000815250905090565b6060611a6b82610ced565b6000611a75611a49565b90506000815111611a955760405180602001604052806000815250611ac0565b80611a9f84611f09565b604051602001611ab0929190613172565b6040516020818303038152906040525b915050919050565b611ad2838361206a565b611adf60008484846118b2565b611b1e576040517f08c379a0000000000000000000000000000000000000000000000000000000008152600401611b1590613116565b60405180910390fd5b505050565b60007f01ffc9a7000000000000000000000000000000000000000000000000000000007bffffffffffffffffffffffffffffffffffffffffffffffffffffffff1916827bffffffffffffffffffffffffffffffffffffffffffffffffffffffff1916149050919050565b606060006002836002611ba091906133dd565b611baa9190612fe2565b67ffffffffffffffff811115611bc357611bc26127c9565b5b6040519080825280601f01601f191660200182016040528015611bf55781602001600182028036833780820191505090505b5090507f300000000000000000000000000000000000000000000000000000000000000081600081518110611c2d57611c2c613437565b5b60200101907effffffffffffffffffffffffffffffffffffffffffffffffffffffffffffff1916908160001a9053507f780000000000000000000000000000000000000000000000000000000000000081600181518110611c9157611c90613437565b5b60200101907effffffffffffffffffffffffffffffffffffffffffffffffffffffffffffff1916908160001a90535060006001846002611cd191906133dd565b611cdb9190612fe2565b90505b6001811115611d7b577f3031323334353637383961626364656600000000000000000000000000000000600f861660108110611d1d57611d1c613437565b5b1a60f81b828281518110611d3457611d33613437565b5b60200101907effffffffffffffffffffffffffffffffffffffffffffffffffffffffffffff1916908160001a905350600485901c945080611d7490613466565b9050611cde565b5060008414611dbf576040517f08c379a0000000000000000000000000000000000000000000000000000000008152600401611db6906134dc565b60405180910390fd5b8091505092915050565b6000611dd482610846565b9050611de2816000846117b8565b611ded600083610d40565b6001600360008373ffffffffffffffffffffffffffffffffffffffff1673ffffffffffffffffffffffffffffffffffffffff1681526020019081526020016000206000828254611e3d9190612fae565b925050819055506002600083815260200190815260200160002060006101000a81549073ffffffffffffffffffffffffffffffffffffffff021916905581600073ffffffffffffffffffffffffffffffffffffffff168273ffffffffffffffffffffffffffffffffffffffff167fddf252ad1be2c89b69c2b068fc378daa952ba7f163c4a11628f55a4df523b3ef60405160405180910390a4611ee2816000846117bd565b5050565b6000808273ffffffffffffffffffffffffffffffffffffffff163b119050919050565b60606000821415611f51576040518060400160405280600181526020017f30000000000000000000000000000000000000000000000000000000000000008152509050612065565b600082905060005b60008214611f83578080611f6c906134fc565b915050600a82611f7c9190613574565b9150611f59565b60008167ffffffffffffffff811115611f9f57611f9e6127c9565b5b6040519080825280601f01601f191660200182016040528015611fd15781602001600182028036833780820191505090505b5090505b6000851461205e57600182611fea9190612fae565b9150600a85611ff991906135a5565b60306120059190612fe2565b60f81b81838151811061201b5761201a613437565b5b60200101907effffffffffffffffffffffffffffffffffffffffffffffffffffffffffffff1916908160001a905350600a856120579190613574565b9450611fd5565b8093505050505b919050565b600073ffffffffffffffffffffffffffffffffffffffff168273ffffffffffffffffffffffffffffffffffffffff1614156120da576040517f08c379a00000000000000000000000000000000000000000000000000000000081526004016120d190613622565b60405180910390fd5b6120e38161174c565b15612123576040517f08c379a000000000000000000000000000000000000000000000000000000000815260040161211a9061368e565b60405180910390fd5b61212f600083836117b8565b6001600360008473ffffffffffffffffffffffffffffffffffffffff1673ffffffffffffffffffffffffffffffffffffffff168152602001908152602001600020600082825461217f9190612fe2565b92505081905550816002600083815260200190815260200160002060006101000a81548173ffffffffffffffffffffffffffffffffffffffff021916908373ffffffffffffffffffffffffffffffffffffffff160217905550808273ffffffffffffffffffffffffffffffffffffffff16600073ffffffffffffffffffffffffffffffffffffffff167fddf252ad1be2c89b69c2b068fc378daa952ba7f163c4a11628f55a4df523b3ef60405160405180910390a4612240600083836117bd565b5050565b82805461225090612ae3565b90600052602060002090601f01602090048101928261227257600085556122b9565b82601f1061228b57805160ff19168380011785556122b9565b828001600101855582156122b9579182015b828111156122b857825182559160200191906001019061229d565b5b5090506122c6919061230a565b5090565b5080546122d690612ae3565b6000825580601f106122e85750612307565b601f016020900490600052602060002090810190612306919061230a565b5b50565b5b8082111561232357600081600090555060010161230b565b5090565b6000604051905090565b600080fd5b600080fd5b60007fffffffff0000000000000000000000000000000000000000000000000000000082169050919050565b6123708161233b565b811461237b57600080fd5b50565b60008135905061238d81612367565b92915050565b6000602082840312156123a9576123a8612331565b5b60006123b78482850161237e565b91505092915050565b60008115159050919050565b6123d5816123c0565b82525050565b60006020820190506123f060008301846123cc565b92915050565b600081519050919050565b600082825260208201905092915050565b60005b83811015612430578082015181840152602081019050612415565b8381111561243f576000848401525b50505050565b6000601f19601f8301169050919050565b6000612461826123f6565b61246b8185612401565b935061247b818560208601612412565b61248481612445565b840191505092915050565b600060208201905081810360008301526124a98184612456565b905092915050565b6000819050919050565b6124c4816124b1565b81146124cf57600080fd5b50565b6000813590506124e1816124bb565b92915050565b6000602082840312156124fd576124fc612331565b5b600061250b848285016124d2565b91505092915050565b600073ffffffffffffffffffffffffffffffffffffffff82169050919050565b600061253f82612514565b9050919050565b61254f81612534565b82525050565b600060208201905061256a6000830184612546565b92915050565b61257981612534565b811461258457600080fd5b50565b60008135905061259681612570565b92915050565b600080604083850312156125b3576125b2612331565b5b60006125c185828601612587565b92505060206125d2858286016124d2565b9150509250929050565b6000806000606084860312156125f5576125f4612331565b5b600061260386828701612587565b935050602061261486828701612587565b9250506040612625868287016124d2565b9150509250925092565b6000819050919050565b6126428161262f565b811461264d57600080fd5b50565b60008135905061265f81612639565b92915050565b60006020828403121561267b5761267a612331565b5b600061268984828501612650565b91505092915050565b61269b8161262f565b82525050565b60006020820190506126b66000830184612692565b92915050565b600080604083850312156126d3576126d2612331565b5b60006126e185828601612650565b92505060206126f285828601612587565b9150509250929050565b60006020828403121561271257612711612331565b5b600061272084828501612587565b91505092915050565b612732816124b1565b82525050565b600060208201905061274d6000830184612729565b92915050565b61275c816123c0565b811461276757600080fd5b50565b60008135905061277981612753565b92915050565b6000806040838503121561279657612795612331565b5b60006127a485828601612587565b92505060206127b58582860161276a565b9150509250929050565b600080fd5b600080fd5b7f4e487b7100000000000000000000000000000000000000000000000000000000600052604160045260246000fd5b61280182612445565b810181811067ffffffffffffffff821117156128205761281f6127c9565b5b80604052505050565b6000612833612327565b905061283f82826127f8565b919050565b600067ffffffffffffffff82111561285f5761285e6127c9565b5b61286882612445565b9050602081019050919050565b82818337600083830152505050565b600061289761289284612844565b612829565b9050828152602081018484840111156128b3576128b26127c4565b5b6128be848285612875565b509392505050565b600082601f8301126128db576128da6127bf565b5b81356128eb848260208601612884565b91505092915050565b6000806000806080858703121561290e5761290d612331565b5b600061291c87828801612587565b945050602061292d87828801612587565b935050604061293e878288016124d2565b925050606085013567ffffffffffffffff81111561295f5761295e612336565b5b61296b878288016128c6565b91505092959194509250565b600067ffffffffffffffff821115612992576129916127c9565b5b61299b82612445565b9050602081019050919050565b60006129bb6129b684612977565b612829565b9050828152602081018484840111156129d7576129d66127c4565b5b6129e2848285612875565b509392505050565b600082601f8301126129ff576129fe6127bf565b5b8135612a0f8482602086016129a8565b91505092915050565b60008060408385031215612a2f57612a2e612331565b5b6000612a3d85828601612587565b925050602083013567ffffffffffffffff811115612a5e57612a5d612336565b5b612a6a858286016129ea565b9150509250929050565b60008060408385031215612a8b57612a8a612331565b5b6000612a9985828601612587565b9250506020612aaa85828601612587565b9150509250929050565b7f4e487b7100000000000000000000000000000000000000000000000000000000600052602260045260246000fd5b60006002820490506001821680612afb57607f821691505b60208210811415612b0f57612b0e612ab4565b5b50919050565b7f4552433732313a20617070726f76616c20746f2063757272656e74206f776e6560008201527f7200000000000000000000000000000000000000000000000000000000000000602082015250565b6000612b71602183612401565b9150612b7c82612b15565b604082019050919050565b60006020820190508181036000830152612ba081612b64565b9050919050565b7f4552433732313a20617070726f76652063616c6c6572206973206e6f7420746f60008201527f6b656e206f776e6572206e6f7220617070726f76656420666f7220616c6c0000602082015250565b6000612c03603e83612401565b9150612c0e82612ba7565b604082019050919050565b60006020820190508181036000830152612c3281612bf6565b9050919050565b7f4552433732313a2063616c6c6572206973206e6f7420746f6b656e206f776e6560008201527f72206e6f7220617070726f766564000000000000000000000000000000000000602082015250565b6000612c95602e83612401565b9150612ca082612c39565b604082019050919050565b60006020820190508181036000830152612cc481612c88565b9050919050565b7f416363657373436f6e74726f6c3a2063616e206f6e6c792072656e6f756e636560008201527f20726f6c657320666f722073656c660000000000000000000000000000000000602082015250565b6000612d27602f83612401565b9150612d3282612ccb565b604082019050919050565b60006020820190508181036000830152612d5681612d1a565b9050919050565b7f4552433732313a20696e76616c696420746f6b656e2049440000000000000000600082015250565b6000612d93601883612401565b9150612d9e82612d5d565b602082019050919050565b60006020820190508181036000830152612dc281612d86565b9050919050565b7f4552433732313a2061646472657373207a65726f206973206e6f74206120766160008201527f6c6964206f776e65720000000000000000000000000000000000000000000000602082015250565b6000612e25602983612401565b9150612e3082612dc9565b604082019050919050565b60006020820190508181036000830152612e5481612e18565b9050919050565b7f4552433732313a207472616e736665722066726f6d20696e636f72726563742060008201527f6f776e6572000000000000000000000000000000000000000000000000000000602082015250565b6000612eb7602583612401565b9150612ec282612e5b565b604082019050919050565b60006020820190508181036000830152612ee681612eaa565b9050919050565b7f4552433732313a207472616e7366657220746f20746865207a65726f2061646460008201527f7265737300000000000000000000000000000000000000000000000000000000602082015250565b6000612f49602483612401565b9150612f5482612eed565b604082019050919050565b60006020820190508181036000830152612f7881612f3c565b9050919050565b7f4e487b7100000000000000000000000000000000000000000000000000000000600052601160045260246000fd5b6000612fb9826124b1565b9150612fc4836124b1565b925082821015612fd757612fd6612f7f565b5b828203905092915050565b6000612fed826124b1565b9150612ff8836124b1565b9250827fffffffffffffffffffffffffffffffffffffffffffffffffffffffffffffffff0382111561302d5761302c612f7f565b5b828201905092915050565b7f4552433732313a20617070726f766520746f2063616c6c657200000000000000600082015250565b600061306e601983612401565b915061307982613038565b602082019050919050565b6000602082019050818103600083015261309d81613061565b9050919050565b7f4552433732313a207472616e7366657220746f206e6f6e20455243373231526560008201527f63656976657220696d706c656d656e7465720000000000000000000000000000602082015250565b6000613100603283612401565b915061310b826130a4565b604082019050919050565b6000602082019050818103600083015261312f816130f3565b9050919050565b600081905092915050565b600061314c826123f6565b6131568185613136565b9350613166818560208601612412565b80840191505092915050565b600061317e8285613141565b915061318a8284613141565b91508190509392505050565b7f45524337323155524953746f726167653a2055524920736574206f66206e6f6e60008201527f6578697374656e7420746f6b656e000000000000000000000000000000000000602082015250565b60006131f2602e83612401565b91506131fd82613196565b604082019050919050565b60006020820190508181036000830152613221816131e5565b9050919050565b7f416363657373436f6e74726f6c3a206163636f756e7420000000000000000000600082015250565b600061325e601783613136565b915061326982613228565b601782019050919050565b7f206973206d697373696e6720726f6c6520000000000000000000000000000000600082015250565b60006132aa601183613136565b91506132b582613274565b601182019050919050565b60006132cb82613251565b91506132d78285613141565b91506132e28261329d565b91506132ee8284613141565b91508190509392505050565b600081519050919050565b600082825260208201905092915050565b6000613321826132fa565b61332b8185613305565b935061333b818560208601612412565b61334481612445565b840191505092915050565b60006080820190506133646000830187612546565b6133716020830186612546565b61337e6040830185612729565b81810360608301526133908184613316565b905095945050505050565b6000815190506133aa81612367565b92915050565b6000602082840312156133c6576133c5612331565b5b60006133d48482850161339b565b91505092915050565b60006133e8826124b1565b91506133f3836124b1565b9250817fffffffffffffffffffffffffffffffffffffffffffffffffffffffffffffffff048311821515161561342c5761342b612f7f565b5b828202905092915050565b7f4e487b7100000000000000000000000000000000000000000000000000000000600052603260045260246000fd5b6000613471826124b1565b9150600082141561348557613484612f7f565b5b600182039050919050565b7f537472696e67733a20686578206c656e67746820696e73756666696369656e74600082015250565b60006134c6602083612401565b91506134d182613490565b602082019050919050565b600060208201905081810360008301526134f5816134b9565b9050919050565b6000613507826124b1565b91507fffffffffffffffffffffffffffffffffffffffffffffffffffffffffffffffff82141561353a57613539612f7f565b5b600182019050919050565b7f4e487b7100000000000000000000000000000000000000000000000000000000600052601260045260246000fd5b600061357f826124b1565b915061358a836124b1565b92508261359a57613599613545565b5b828204905092915050565b60006135b0826124b1565b91506135bb836124b1565b9250826135cb576135ca613545565b5b828206905092915050565b7f4552433732313a206d696e7420746f20746865207a65726f2061646472657373600082015250565b600061360c602083612401565b9150613617826135d6565b602082019050919050565b6000602082019050818103600083015261363b816135ff565b9050919050565b7f4552433732313a20746f6b656e20616c7265616479206d696e74656400000000600082015250565b6000613678601c83612401565b915061368382613642565b602082019050919050565b600060208201905081810360008301526136a78161366b565b905091905056fea26469706673582212203ab37443ee03e2552c61aed6d7c5da1914a15129482f6244babab447277b43fb64736f6c63430008090033",
  "linkReferences": {},
  "deployedLinkReferences": {}
}